{
  "_format": "hh-sol-artifact-1",
  "contractName": "gatoXadrezMarket",
  "sourceName": "contracts/MarketXadrez.sol",
  "abi": [
    {
      "inputs": [],
      "stateMutability": "nonpayable",
      "type": "constructor"
    },
    {
      "anonymous": false,
      "inputs": [
        {
          "indexed": true,
          "internalType": "uint256",
          "name": "itemId",
          "type": "uint256"
        },
        {
          "indexed": true,
          "internalType": "address",
          "name": "nftContract",
          "type": "address"
        },
        {
          "indexed": true,
          "internalType": "uint256",
          "name": "tokenId",
          "type": "uint256"
        },
        {
          "indexed": false,
          "internalType": "address",
          "name": "seller",
          "type": "address"
        },
        {
          "indexed": false,
          "internalType": "address",
          "name": "owner",
          "type": "address"
        },
        {
          "indexed": false,
          "internalType": "uint256",
          "name": "price",
          "type": "uint256"
        },
        {
          "indexed": false,
          "internalType": "bool",
          "name": "sold",
          "type": "bool"
        }
      ],
      "name": "MarketItemCreated",
      "type": "event"
    },
    {
      "inputs": [
        {
          "internalType": "address",
          "name": "nftContract",
          "type": "address"
        },
        {
          "internalType": "uint256",
          "name": "tokenId",
          "type": "uint256"
        },
        {
          "internalType": "uint256",
          "name": "price",
          "type": "uint256"
        }
      ],
      "name": "createMarketItem",
      "outputs": [],
      "stateMutability": "payable",
      "type": "function"
    },
    {
      "inputs": [
        {
          "internalType": "address",
          "name": "nftContract",
          "type": "address"
        },
        {
          "internalType": "uint256",
          "name": "itemid",
          "type": "uint256"
        }
      ],
      "name": "createMarketSale",
      "outputs": [],
      "stateMutability": "payable",
      "type": "function"
    },
    {
      "inputs": [],
      "name": "fetchMarketItems",
      "outputs": [
        {
          "components": [
            {
              "internalType": "uint256",
              "name": "itemId",
              "type": "uint256"
            },
            {
              "internalType": "address",
              "name": "nftContract",
              "type": "address"
            },
            {
              "internalType": "uint256",
              "name": "tokenId",
              "type": "uint256"
            },
            {
              "internalType": "address payable",
              "name": "seller",
              "type": "address"
            },
            {
              "internalType": "address payable",
              "name": "owner",
              "type": "address"
            },
            {
              "internalType": "uint256",
              "name": "price",
              "type": "uint256"
            },
            {
              "internalType": "bool",
              "name": "sold",
              "type": "bool"
            }
          ],
          "internalType": "struct gatoXadrezMarket.MarketItem[]",
          "name": "",
          "type": "tuple[]"
        }
      ],
      "stateMutability": "view",
      "type": "function"
    },
    {
      "inputs": [],
      "name": "fetchmyNFTs",
      "outputs": [
        {
          "components": [
            {
              "internalType": "uint256",
              "name": "itemId",
              "type": "uint256"
            },
            {
              "internalType": "address",
              "name": "nftContract",
              "type": "address"
            },
            {
              "internalType": "uint256",
              "name": "tokenId",
              "type": "uint256"
            },
            {
              "internalType": "address payable",
              "name": "seller",
              "type": "address"
            },
            {
              "internalType": "address payable",
              "name": "owner",
              "type": "address"
            },
            {
              "internalType": "uint256",
              "name": "price",
              "type": "uint256"
            },
            {
              "internalType": "bool",
              "name": "sold",
              "type": "bool"
            }
          ],
          "internalType": "struct gatoXadrezMarket.MarketItem[]",
          "name": "",
          "type": "tuple[]"
        }
      ],
      "stateMutability": "view",
      "type": "function"
    },
    {
      "inputs": [],
      "name": "getListingPrice",
      "outputs": [
        {
          "internalType": "uint256",
          "name": "",
          "type": "uint256"
        }
      ],
      "stateMutability": "view",
      "type": "function"
    }
  ],
  "bytecode": "0x60806040526706f05b59d3b2000060045534801561001c57600080fd5b50600160008190555033600360006101000a81548173ffffffffffffffffffffffffffffffffffffffff021916908373ffffffffffffffffffffffffffffffffffffffff16021790555061156c806100756000396000f3fe60806040526004361061004a5760003560e01c80630f08efe01461004f57806312e855851461007a57806358eb2df5146100a5578063b82b289c146100c1578063c23b139e146100ec575b600080fd5b34801561005b57600080fd5b50610064610108565b60405161007191906111db565b60405180910390f35b34801561008657600080fd5b5061008f610434565b60405161009c919061127d565b60405180910390f35b6100bf60048036038101906100ba9190610f17565b61043e565b005b3480156100cd57600080fd5b506100d66107a2565b6040516100e391906111db565b60405180910390f35b61010660048036038101906101019190610edb565b610b52565b005b606060006101166002610e0c565b905060006101246001610e0c565b61012e6002610e0c565b6101389190611338565b90506000808267ffffffffffffffff81111561017d577f4e487b7100000000000000000000000000000000000000000000000000000000600052604160045260246000fd5b6040519080825280602002602001820160405280156101b657816020015b6101a3610e30565b81526020019060019003908161019b5790505b50905060005b8481101561042957600073ffffffffffffffffffffffffffffffffffffffff16600560006001846101ed91906112e2565b815260200190815260200160002060040160009054906101000a900473ffffffffffffffffffffffffffffffffffffffff1673ffffffffffffffffffffffffffffffffffffffff1614156104165760006005600060018461024e91906112e2565b81526020019081526020016000206000015490506000600560008381526020019081526020016000209050806040518060e0016040529081600082015481526020016001820160009054906101000a900473ffffffffffffffffffffffffffffffffffffffff1673ffffffffffffffffffffffffffffffffffffffff1673ffffffffffffffffffffffffffffffffffffffff168152602001600282015481526020016003820160009054906101000a900473ffffffffffffffffffffffffffffffffffffffff1673ffffffffffffffffffffffffffffffffffffffff1673ffffffffffffffffffffffffffffffffffffffff1681526020016004820160009054906101000a900473ffffffffffffffffffffffffffffffffffffffff1673ffffffffffffffffffffffffffffffffffffffff1673ffffffffffffffffffffffffffffffffffffffff168152602001600582015481526020016006820160009054906101000a900460ff1615151515815250508486815181106103f9577f4e487b7100000000000000000000000000000000000000000000000000000000600052603260045260246000fd5b602002602001018190525060018561041191906112e2565b945050505b8080610421906113c6565b9150506101bc565b508094505050505090565b6000600454905090565b60026000541415610484576040517f08c379a000000000000000000000000000000000000000000000000000000000815260040161047b9061123d565b60405180910390fd5b6002600081905550600081116104cf576040517f08c379a00000000000000000000000000000000000000000000000000000000081526004016104c69061125d565b60405180910390fd5b6004543414610513576040517f08c379a000000000000000000000000000000000000000000000000000000000815260040161050a906111fd565b60405180910390fd5b61051d6002610e1a565b60006105296002610e0c565b90506040518060e001604052808281526020018573ffffffffffffffffffffffffffffffffffffffff1681526020018481526020013373ffffffffffffffffffffffffffffffffffffffff168152602001600073ffffffffffffffffffffffffffffffffffffffff16815260200183815260200160001515815250600560008381526020019081526020016000206000820151816000015560208201518160010160006101000a81548173ffffffffffffffffffffffffffffffffffffffff021916908373ffffffffffffffffffffffffffffffffffffffff1602179055506040820151816002015560608201518160030160006101000a81548173ffffffffffffffffffffffffffffffffffffffff021916908373ffffffffffffffffffffffffffffffffffffffff16021790555060808201518160040160006101000a81548173ffffffffffffffffffffffffffffffffffffffff021916908373ffffffffffffffffffffffffffffffffffffffff16021790555060a0820151816005015560c08201518160060160006101000a81548160ff0219169083151502179055509050508373ffffffffffffffffffffffffffffffffffffffff166323b872dd3330866040518463ffffffff1660e01b815260040161070a9392919061115f565b600060405180830381600087803b15801561072457600080fd5b505af1158015610738573d6000803e3d6000fd5b50505050828473ffffffffffffffffffffffffffffffffffffffff16827f045dfa01dcba2b36aba1d3dc4a874f4b0c5d2fbeb8d2c4b34a7d88c8d8f929d133600087600060405161078c9493929190611196565b60405180910390a4506001600081905550505050565b606060006107b06002610e0c565b905060008060005b83811015610859573373ffffffffffffffffffffffffffffffffffffffff16600560006001846107e891906112e2565b815260200190815260200160002060040160009054906101000a900473ffffffffffffffffffffffffffffffffffffffff1673ffffffffffffffffffffffffffffffffffffffff1614156108465760018361084391906112e2565b92505b8080610851906113c6565b9150506107b8565b5060008267ffffffffffffffff81111561089c577f4e487b7100000000000000000000000000000000000000000000000000000000600052604160045260246000fd5b6040519080825280602002602001820160405280156108d557816020015b6108c2610e30565b8152602001906001900390816108ba5790505b50905060005b84811015610b47573373ffffffffffffffffffffffffffffffffffffffff166005600060018461090b91906112e2565b815260200190815260200160002060040160009054906101000a900473ffffffffffffffffffffffffffffffffffffffff1673ffffffffffffffffffffffffffffffffffffffff161415610b345760006005600060018461096c91906112e2565b81526020019081526020016000206000015490506000600560008381526020019081526020016000209050806040518060e0016040529081600082015481526020016001820160009054906101000a900473ffffffffffffffffffffffffffffffffffffffff1673ffffffffffffffffffffffffffffffffffffffff1673ffffffffffffffffffffffffffffffffffffffff168152602001600282015481526020016003820160009054906101000a900473ffffffffffffffffffffffffffffffffffffffff1673ffffffffffffffffffffffffffffffffffffffff1673ffffffffffffffffffffffffffffffffffffffff1681526020016004820160009054906101000a900473ffffffffffffffffffffffffffffffffffffffff1673ffffffffffffffffffffffffffffffffffffffff1673ffffffffffffffffffffffffffffffffffffffff168152602001600582015481526020016006820160009054906101000a900460ff161515151581525050848681518110610b17577f4e487b7100000000000000000000000000000000000000000000000000000000600052603260045260246000fd5b6020026020010181905250600185610b2f91906112e2565b945050505b8080610b3f906113c6565b9150506108db565b508094505050505090565b60026000541415610b98576040517f08c379a0000000000000000000000000000000000000000000000000000000008152600401610b8f9061123d565b60405180910390fd5b600260008190555060006005600083815260200190815260200160002060050154905060006005600084815260200190815260200160002060020154905081341015610c19576040517f08c379a0000000000000000000000000000000000000000000000000000000008152600401610c109061121d565b60405180910390fd5b6005600084815260200190815260200160002060030160009054906101000a900473ffffffffffffffffffffffffffffffffffffffff1673ffffffffffffffffffffffffffffffffffffffff166108fc349081150290604051600060405180830381858888f19350505050158015610c95573d6000803e3d6000fd5b508373ffffffffffffffffffffffffffffffffffffffff166323b872dd3033846040518463ffffffff1660e01b8152600401610cd39392919061115f565b600060405180830381600087803b158015610ced57600080fd5b505af1158015610d01573d6000803e3d6000fd5b50505050336005600085815260200190815260200160002060040160006101000a81548173ffffffffffffffffffffffffffffffffffffffff021916908373ffffffffffffffffffffffffffffffffffffffff16021790555060016005600085815260200190815260200160002060060160006101000a81548160ff021916908315150217905550610d936001610e1a565b600360009054906101000a900473ffffffffffffffffffffffffffffffffffffffff1673ffffffffffffffffffffffffffffffffffffffff166108fc6004549081150290604051600060405180830381858888f19350505050158015610dfd573d6000803e3d6000fd5b50505060016000819055505050565b600081600001549050919050565b6001816000016000828254019250508190555050565b6040518060e0016040528060008152602001600073ffffffffffffffffffffffffffffffffffffffff16815260200160008152602001600073ffffffffffffffffffffffffffffffffffffffff168152602001600073ffffffffffffffffffffffffffffffffffffffff168152602001600081526020016000151581525090565b600081359050610ec081611508565b92915050565b600081359050610ed58161151f565b92915050565b60008060408385031215610eee57600080fd5b6000610efc85828601610eb1565b9250506020610f0d85828601610ec6565b9150509250929050565b600080600060608486031215610f2c57600080fd5b6000610f3a86828701610eb1565b9350506020610f4b86828701610ec6565b9250506040610f5c86828701610ec6565b9150509250925092565b6000610f7283836110b3565b60e08301905092915050565b610f878161137e565b82525050565b610f968161136c565b82525050565b610fa58161136c565b82525050565b6000610fb6826112a8565b610fc081856112c0565b9350610fcb83611298565b8060005b83811015610ffc578151610fe38882610f66565b9750610fee836112b3565b925050600181019050610fcf565b5085935050505092915050565b61101281611390565b82525050565b61102181611390565b82525050565b60006110346013836112d1565b915061103f8261143e565b602082019050919050565b6000611057602c836112d1565b915061106282611467565b604082019050919050565b600061107a601f836112d1565b9150611085826114b6565b602082019050919050565b600061109d6014836112d1565b91506110a8826114df565b602082019050919050565b60e0820160008201516110c96000850182611141565b5060208201516110dc6020850182610f8d565b5060408201516110ef6040850182611141565b5060608201516111026060850182610f7e565b5060808201516111156080850182610f7e565b5060a082015161112860a0850182611141565b5060c082015161113b60c0850182611009565b50505050565b61114a816113bc565b82525050565b611159816113bc565b82525050565b60006060820190506111746000830186610f9c565b6111816020830185610f9c565b61118e6040830184611150565b949350505050565b60006080820190506111ab6000830187610f9c565b6111b86020830186610f9c565b6111c56040830185611150565b6111d26060830184611018565b95945050505050565b600060208201905081810360008301526111f58184610fab565b905092915050565b6000602082019050818103600083015261121681611027565b9050919050565b600060208201905081810360008301526112368161104a565b9050919050565b600060208201905081810360008301526112568161106d565b9050919050565b6000602082019050818103600083015261127681611090565b9050919050565b60006020820190506112926000830184611150565b92915050565b6000819050602082019050919050565b600081519050919050565b6000602082019050919050565b600082825260208201905092915050565b600082825260208201905092915050565b60006112ed826113bc565b91506112f8836113bc565b9250827fffffffffffffffffffffffffffffffffffffffffffffffffffffffffffffffff0382111561132d5761132c61140f565b5b828201905092915050565b6000611343826113bc565b915061134e836113bc565b9250828210156113615761136061140f565b5b828203905092915050565b60006113778261139c565b9050919050565b60006113898261139c565b9050919050565b60008115159050919050565b600073ffffffffffffffffffffffffffffffffffffffff82169050919050565b6000819050919050565b60006113d1826113bc565b91507fffffffffffffffffffffffffffffffffffffffffffffffffffffffffffffffff8214156114045761140361140f565b5b600182019050919050565b7f4e487b7100000000000000000000000000000000000000000000000000000000600052601160045260246000fd5b7f5072696365206c697374696e6720707269636500000000000000000000000000600082015250565b7f5072696365206d75737420626520657175616c20746f2074686520707269636560008201527f206f6620746865206974656d0000000000000000000000000000000000000000602082015250565b7f5265656e7472616e637947756172643a207265656e7472616e742063616c6c00600082015250565b7f70726963652063616e6e6f74206265207a65726f000000000000000000000000600082015250565b6115118161136c565b811461151c57600080fd5b50565b611528816113bc565b811461153357600080fd5b5056fea2646970667358221220537de2812f524c6893a7e1b39d9ed888ebbc93eefe4051b59f0aa1898b15b26664736f6c63430008040033",
  "linkReferences": {},
  "deployedLinkReferences": {}
}